{
  "_format": "hh-sol-artifact-1",
  "contractName": "Factory",
  "sourceName": "contracts/Factory.sol",
  "abi": [
    {
      "inputs": [
        {
          "internalType": "address",
          "name": "_base721Address",
          "type": "address"
        },
        {
          "internalType": "address",
          "name": "_base20Address",
          "type": "address"
        },
        {
          "internalType": "address",
          "name": "router_",
          "type": "address"
        },
        {
          "internalType": "address",
          "name": "fresc_address_",
          "type": "address"
        },
        {
          "internalType": "address",
          "name": "identity_addr_",
          "type": "address"
        }
      ],
      "stateMutability": "nonpayable",
      "type": "constructor"
    },
    {
      "anonymous": false,
      "inputs": [
        {
          "indexed": true,
          "internalType": "address",
          "name": "_baseAddress",
          "type": "address"
        },
        {
          "indexed": false,
          "internalType": "bool",
          "name": "_isActive",
          "type": "bool"
        }
      ],
      "name": "Base721Added",
      "type": "event"
    },
    {
      "anonymous": false,
      "inputs": [
        {
          "indexed": false,
          "internalType": "address",
          "name": "contractAddress",
          "type": "address"
        },
        {
          "indexed": false,
          "internalType": "address",
          "name": "contractOwner",
          "type": "address"
        },
        {
          "indexed": false,
          "internalType": "string",
          "name": "name",
          "type": "string"
        },
        {
          "indexed": false,
          "internalType": "string",
          "name": "symbol",
          "type": "string"
        }
      ],
      "name": "ERC20ContractDeployed",
      "type": "event"
    },
    {
      "anonymous": false,
      "inputs": [
        {
          "indexed": false,
          "internalType": "address",
          "name": "instance",
          "type": "address"
        }
      ],
      "name": "InstanceDeployed",
      "type": "event"
    },
    {
      "anonymous": false,
      "inputs": [
        {
          "indexed": false,
          "internalType": "address",
          "name": "newTokenAddress",
          "type": "address"
        },
        {
          "indexed": false,
          "internalType": "address",
          "name": "templateAddress",
          "type": "address"
        },
        {
          "indexed": false,
          "internalType": "string",
          "name": "tokenName",
          "type": "string"
        },
        {
          "indexed": false,
          "internalType": "address",
          "name": "admin",
          "type": "address"
        },
        {
          "indexed": false,
          "internalType": "string",
          "name": "symbol",
          "type": "string"
        },
        {
          "indexed": false,
          "internalType": "string",
          "name": "descriptionUri",
          "type": "string"
        }
      ],
      "name": "NFTCreated",
      "type": "event"
    },
    {
      "anonymous": false,
      "inputs": [
        {
          "indexed": true,
          "internalType": "address",
          "name": "previousOwner",
          "type": "address"
        },
        {
          "indexed": true,
          "internalType": "address",
          "name": "newOwner",
          "type": "address"
        }
      ],
      "name": "OwnershipTransferred",
      "type": "event"
    },
    {
      "stateMutability": "payable",
      "type": "fallback"
    },
    {
      "inputs": [
        {
          "internalType": "address",
          "name": "",
          "type": "address"
        }
      ],
      "name": "createdERC20List",
      "outputs": [
        {
          "internalType": "address",
          "name": "",
          "type": "address"
        }
      ],
      "stateMutability": "view",
      "type": "function"
    },
    {
      "inputs": [
        {
          "internalType": "address",
          "name": "",
          "type": "address"
        }
      ],
      "name": "createdERC721List",
      "outputs": [
        {
          "internalType": "address",
          "name": "",
          "type": "address"
        }
      ],
      "stateMutability": "view",
      "type": "function"
    },
    {
      "inputs": [
        {
          "internalType": "string",
          "name": "name_",
          "type": "string"
        },
        {
          "internalType": "string",
          "name": "symbol_",
          "type": "string"
        },
        {
          "internalType": "address",
          "name": "owner_",
          "type": "address"
        },
        {
          "internalType": "address",
          "name": "erc721address_",
          "type": "address"
        },
        {
          "internalType": "uint256",
          "name": "maxSupply_",
          "type": "uint256"
        },
        {
          "internalType": "bool",
          "name": "is_from_all_inOne",
          "type": "bool"
        }
      ],
      "name": "deployERC20Contract",
      "outputs": [
        {
          "internalType": "address",
          "name": "erc20Instance",
          "type": "address"
        }
      ],
      "stateMutability": "nonpayable",
      "type": "function"
    },
    {
      "inputs": [
        {
          "components": [
            {
              "internalType": "string",
              "name": "name",
              "type": "string"
            },
            {
              "internalType": "string",
              "name": "symbol",
              "type": "string"
            },
            {
              "internalType": "string",
              "name": "descriptionUri",
              "type": "string"
            },
            {
              "internalType": "string",
              "name": "descriptionHash",
              "type": "string"
            },
            {
              "internalType": "string",
              "name": "dt_name",
              "type": "string"
            },
            {
              "internalType": "string",
              "name": "dt_symbol",
              "type": "string"
            },
            {
              "internalType": "uint256",
              "name": "maxSupply_",
              "type": "uint256"
            }
          ],
          "internalType": "struct Factory.PublishData",
          "name": "_publishData",
          "type": "tuple"
        }
      ],
      "name": "deployERC721Contract",
      "outputs": [
        {
          "internalType": "address",
          "name": "erc721Instance",
          "type": "address"
        }
      ],
      "stateMutability": "nonpayable",
      "type": "function"
    },
    {
      "inputs": [
        {
          "internalType": "address",
          "name": "",
          "type": "address"
        }
      ],
      "name": "eRC20_to_owner",
      "outputs": [
        {
          "internalType": "address",
          "name": "",
          "type": "address"
        }
      ],
      "stateMutability": "view",
      "type": "function"
    },
    {
      "inputs": [
        {
          "internalType": "address",
          "name": "",
          "type": "address"
        }
      ],
      "name": "eRC721_to_owner",
      "outputs": [
        {
          "internalType": "address",
          "name": "",
          "type": "address"
        }
      ],
      "stateMutability": "view",
      "type": "function"
    },
    {
      "inputs": [
        {
          "internalType": "uint256",
          "name": "",
          "type": "uint256"
        }
      ],
      "name": "erc20addresses",
      "outputs": [
        {
          "internalType": "address",
          "name": "",
          "type": "address"
        }
      ],
      "stateMutability": "view",
      "type": "function"
    },
    {
      "inputs": [
        {
          "internalType": "uint256",
          "name": "",
          "type": "uint256"
        }
      ],
      "name": "erc721addresses",
      "outputs": [
        {
          "internalType": "address",
          "name": "",
          "type": "address"
        }
      ],
      "stateMutability": "view",
      "type": "function"
    },
    {
      "inputs": [],
      "name": "getAllNFTCreatedAddress",
      "outputs": [
        {
          "internalType": "address[]",
          "name": "",
          "type": "address[]"
        }
      ],
      "stateMutability": "view",
      "type": "function"
    },
    {
      "inputs": [],
      "name": "getBase20ContractAddress",
      "outputs": [
        {
          "internalType": "address",
          "name": "",
          "type": "address"
        }
      ],
      "stateMutability": "view",
      "type": "function"
    },
    {
      "inputs": [],
      "name": "getBase721ContractAddress",
      "outputs": [
        {
          "internalType": "address",
          "name": "",
          "type": "address"
        }
      ],
      "stateMutability": "view",
      "type": "function"
    },
    {
      "inputs": [
        {
          "internalType": "address",
          "name": "creator",
          "type": "address"
        }
      ],
      "name": "getNFTCreatedAddress",
      "outputs": [
        {
          "internalType": "address[]",
          "name": "ret",
          "type": "address[]"
        }
      ],
      "stateMutability": "view",
      "type": "function"
    },
    {
      "inputs": [],
      "name": "getNFTCreatedCount",
      "outputs": [
        {
          "internalType": "uint256",
          "name": "",
          "type": "uint256"
        }
      ],
      "stateMutability": "view",
      "type": "function"
    },
    {
      "inputs": [],
      "name": "owner",
      "outputs": [
        {
          "internalType": "address",
          "name": "",
          "type": "address"
        }
      ],
      "stateMutability": "view",
      "type": "function"
    },
    {
      "inputs": [],
      "name": "renounceOwnership",
      "outputs": [],
      "stateMutability": "nonpayable",
      "type": "function"
    },
    {
      "inputs": [
        {
          "components": [
            {
              "internalType": "string",
              "name": "name",
              "type": "string"
            },
            {
              "internalType": "string",
              "name": "symbol",
              "type": "string"
            },
            {
              "internalType": "string",
              "name": "descriptionUri",
              "type": "string"
            },
            {
              "internalType": "string",
              "name": "descriptionHash",
              "type": "string"
            },
            {
              "internalType": "string",
              "name": "dt_name",
              "type": "string"
            },
            {
              "internalType": "string",
              "name": "dt_symbol",
              "type": "string"
            },
            {
              "internalType": "uint256",
              "name": "maxSupply_",
              "type": "uint256"
            }
          ],
          "internalType": "struct Factory.PublishData",
          "name": "_publishData",
          "type": "tuple"
        }
      ],
      "name": "tokenizeService",
      "outputs": [
        {
          "internalType": "address",
          "name": "erc721token",
          "type": "address"
        }
      ],
      "stateMutability": "nonpayable",
      "type": "function"
    },
    {
      "inputs": [
        {
          "internalType": "address",
          "name": "newOwner",
          "type": "address"
        }
      ],
      "name": "transferOwnership",
      "outputs": [],
      "stateMutability": "nonpayable",
      "type": "function"
    },
    {
      "stateMutability": "payable",
      "type": "receive"
    }
  ],
  "bytecode": "0x60806040523480156200001157600080fd5b5060405162003fe538038062003fe58339818101604052810190620000379190620008ab565b620000576200004b620002a560201b60201c565b620002ad60201b60201c565b600073ffffffffffffffffffffffffffffffffffffffff168573ffffffffffffffffffffffffffffffffffffffff1603620000c9576040517f08c379a0000000000000000000000000000000000000000000000000000000008152600401620000c090620009ba565b60405180910390fd5b600073ffffffffffffffffffffffffffffffffffffffff168473ffffffffffffffffffffffffffffffffffffffff16036200013b576040517f08c379a0000000000000000000000000000000000000000000000000000000008152600401620001329062000a52565b60405180910390fd5b600073ffffffffffffffffffffffffffffffffffffffff168373ffffffffffffffffffffffffffffffffffffffff1603620001ad576040517f08c379a0000000000000000000000000000000000000000000000000000000008152600401620001a49062000ac4565b60405180910390fd5b6000600181905550620001c6856200037160201b60201c565b620001d7846200056a60201b60201c565b82600860006101000a81548173ffffffffffffffffffffffffffffffffffffffff021916908373ffffffffffffffffffffffffffffffffffffffff16021790555081600960006101000a81548173ffffffffffffffffffffffffffffffffffffffff021916908373ffffffffffffffffffffffffffffffffffffffff16021790555080600a60006101000a81548173ffffffffffffffffffffffffffffffffffffffff021916908373ffffffffffffffffffffffffffffffffffffffff160217905550505050505062000cc2565b600033905090565b60008060009054906101000a900473ffffffffffffffffffffffffffffffffffffffff169050816000806101000a81548173ffffffffffffffffffffffffffffffffffffffff021916908373ffffffffffffffffffffffffffffffffffffffff1602179055508173ffffffffffffffffffffffffffffffffffffffff168173ffffffffffffffffffffffffffffffffffffffff167f8be0079c531659141344cd1fd0a4f28419497f9722a3daafe3b4186f6b6457e060405160405180910390a35050565b620003816200076360201b60201c565b600073ffffffffffffffffffffffffffffffffffffffff168173ffffffffffffffffffffffffffffffffffffffff1603620003f3576040517f08c379a0000000000000000000000000000000000000000000000000000000008152600401620003ea9062000b5c565b60405180910390fd5b6200040481620007f460201b60201c565b62000446576040517f08c379a00000000000000000000000000000000000000000000000000000000081526004016200043d9062000bf4565b60405180910390fd5b60405180604001604052808273ffffffffffffffffffffffffffffffffffffffff16815260200160011515815250600b60008201518160000160006101000a81548173ffffffffffffffffffffffffffffffffffffffff021916908373ffffffffffffffffffffffffffffffffffffffff16021790555060208201518160000160146101000a81548160ff021916908315150217905550905050600b60000160009054906101000a900473ffffffffffffffffffffffffffffffffffffffff1673ffffffffffffffffffffffffffffffffffffffff167f613fb6702f05dcf998e225eaea1cdff4f649bce43a6b0907bfa454c0e1977df9600b60000160149054906101000a900460ff166040516200055f919062000c33565b60405180910390a250565b6200057a6200076360201b60201c565b600073ffffffffffffffffffffffffffffffffffffffff168173ffffffffffffffffffffffffffffffffffffffff1603620005ec576040517f08c379a0000000000000000000000000000000000000000000000000000000008152600401620005e39062000b5c565b60405180910390fd5b620005fd81620007f460201b60201c565b6200063f576040517f08c379a0000000000000000000000000000000000000000000000000000000008152600401620006369062000bf4565b60405180910390fd5b60405180604001604052808273ffffffffffffffffffffffffffffffffffffffff16815260200160011515815250600c60008201518160000160006101000a81548173ffffffffffffffffffffffffffffffffffffffff021916908373ffffffffffffffffffffffffffffffffffffffff16021790555060208201518160000160146101000a81548160ff021916908315150217905550905050600c60000160009054906101000a900473ffffffffffffffffffffffffffffffffffffffff1673ffffffffffffffffffffffffffffffffffffffff167f613fb6702f05dcf998e225eaea1cdff4f649bce43a6b0907bfa454c0e1977df9600c60000160149054906101000a900460ff1660405162000758919062000c33565b60405180910390a250565b62000773620002a560201b60201c565b73ffffffffffffffffffffffffffffffffffffffff16620007996200081860201b60201c565b73ffffffffffffffffffffffffffffffffffffffff1614620007f2576040517f08c379a0000000000000000000000000000000000000000000000000000000008152600401620007e99062000ca0565b60405180910390fd5b565b6000620008066200076360201b60201c565b6000823b905060008111915050919050565b60008060009054906101000a900473ffffffffffffffffffffffffffffffffffffffff16905090565b600080fd5b600073ffffffffffffffffffffffffffffffffffffffff82169050919050565b6000620008738262000846565b9050919050565b620008858162000866565b81146200089157600080fd5b50565b600081519050620008a5816200087a565b92915050565b600080600080600060a08688031215620008ca57620008c962000841565b5b6000620008da8882890162000894565b9550506020620008ed8882890162000894565b9450506040620009008882890162000894565b9350506060620009138882890162000894565b9250506080620009268882890162000894565b9150509295509295909350565b600082825260208201905092915050565b7f496e76616c696420536572766963654261736520636f6e74726163742061646460008201527f7265737300000000000000000000000000000000000000000000000000000000602082015250565b6000620009a260248362000933565b9150620009af8262000944565b604082019050919050565b60006020820190508181036000830152620009d58162000993565b9050919050565b7f496e76616c696420416363657373546f6b656e4261736520636f6e747261637460008201527f2061646472657373000000000000000000000000000000000000000000000000602082015250565b600062000a3a60288362000933565b915062000a4782620009dc565b604082019050919050565b6000602082019050818103600083015262000a6d8162000a2b565b9050919050565b7f496e76616c696420726f7574657220636f6e7472616374206164647265737300600082015250565b600062000aac601f8362000933565b915062000ab98262000a74565b602082019050919050565b6000602082019050818103600083015262000adf8162000a9d565b9050919050565b7f41646472657373283029204e4f5420616c6c6f77656420666f7220626173652060008201527f4e4654636f6e7472616374000000000000000000000000000000000000000000602082015250565b600062000b44602b8362000933565b915062000b518262000ae6565b604082019050919050565b6000602082019050818103600083015262000b778162000b35565b9050919050565b7f50726f76696465642061646472657373206973204e4f54206120636f6e74726160008201527f6374000000000000000000000000000000000000000000000000000000000000602082015250565b600062000bdc60228362000933565b915062000be98262000b7e565b604082019050919050565b6000602082019050818103600083015262000c0f8162000bcd565b9050919050565b60008115159050919050565b62000c2d8162000c16565b82525050565b600060208201905062000c4a600083018462000c22565b92915050565b7f4f776e61626c653a2063616c6c6572206973206e6f7420746865206f776e6572600082015250565b600062000c8860208362000933565b915062000c958262000c50565b602082019050919050565b6000602082019050818103600083015262000cbb8162000c79565b9050919050565b6133138062000cd26000396000f3fe6080604052600436106101025760003560e01c806382b59fd611610095578063b7bad47511610064578063b7bad47514610379578063dfe845d5146103b6578063eb32c429146103e1578063ed63b8981461041e578063f2fde38b1461045b57610109565b806382b59fd6146102a95780638da5cb5b146102e6578063ab8003d714610311578063ade805cf1461034e57610109565b8063613543d2116100d1578063613543d2146101db578063715018a614610218578063778ea4611461022f57806380dfe2b71461026c57610109565b8063062ac90f1461010b57806332f43b9e146101485780633b4ac5141461018557806356f46912146101b057610109565b3661010957005b005b34801561011757600080fd5b50610132600480360381019061012d9190612026565b610484565b60405161013f91906120fa565b60405180910390f35b34801561015457600080fd5b5061016f600480360381019061016a9190612115565b610c44565b60405161017c91906120fa565b60405180910390f35b34801561019157600080fd5b5061019a610c77565b6040516101a79190612200565b60405180910390f35b3480156101bc57600080fd5b506101c5610d05565b6040516101d29190612231565b60405180910390f35b3480156101e757600080fd5b5061020260048036038101906101fd9190612115565b610d0f565b60405161020f9190612200565b60405180910390f35b34801561022457600080fd5b5061022d610e94565b005b34801561023b57600080fd5b5061025660048036038101906102519190612115565b610ea8565b60405161026391906120fa565b60405180910390f35b34801561027857600080fd5b50610293600480360381019061028e919061224c565b610edb565b6040516102a091906120fa565b60405180910390f35b3480156102b557600080fd5b506102d060048036038101906102cb91906123df565b610f1a565b6040516102dd91906120fa565b60405180910390f35b3480156102f257600080fd5b506102fb6115a4565b60405161030891906120fa565b60405180910390f35b34801561031d57600080fd5b50610338600480360381019061033391906123df565b6115cd565b60405161034591906120fa565b60405180910390f35b34801561035a57600080fd5b50610363611a93565b60405161037091906120fa565b60405180910390f35b34801561038557600080fd5b506103a0600480360381019061039b9190612115565b611ac0565b6040516103ad91906120fa565b60405180910390f35b3480156103c257600080fd5b506103cb611af3565b6040516103d891906120fa565b60405180910390f35b3480156103ed57600080fd5b5061040860048036038101906104039190612115565b611b20565b60405161041591906120fa565b60405180910390f35b34801561042a57600080fd5b506104456004803603810190610440919061224c565b611b53565b60405161045291906120fa565b60405180910390f35b34801561046757600080fd5b50610482600480360381019061047d9190612115565b611b92565b005b60008073ffffffffffffffffffffffffffffffffffffffff163373ffffffffffffffffffffffffffffffffffffffff16036104f4576040517f08c379a00000000000000000000000000000000000000000000000000000000081526004016104eb90612485565b60405180910390fd5b811561070757600260008573ffffffffffffffffffffffffffffffffffffffff1673ffffffffffffffffffffffffffffffffffffffff16815260200190815260200160002060009054906101000a900473ffffffffffffffffffffffffffffffffffffffff1673ffffffffffffffffffffffffffffffffffffffff1663a0a05a4c6040518163ffffffff1660e01b8152600401602060405180830381865afa1580156105a4573d6000803e3d6000fd5b505050506040513d601f19601f820116820180604052508101906105c891906124ba565b73ffffffffffffffffffffffffffffffffffffffff168573ffffffffffffffffffffffffffffffffffffffff1614610635576040517f08c379a000000000000000000000000000000000000000000000000000000000815260040161062c90612559565b60405180910390fd5b8373ffffffffffffffffffffffffffffffffffffffff16600260008673ffffffffffffffffffffffffffffffffffffffff1673ffffffffffffffffffffffffffffffffffffffff16815260200190815260200160002060009054906101000a900473ffffffffffffffffffffffffffffffffffffffff1673ffffffffffffffffffffffffffffffffffffffff1614610702576040517f08c379a00000000000000000000000000000000000000000000000000000000081526004016106f9906125eb565b60405180910390fd5b610910565b3373ffffffffffffffffffffffffffffffffffffffff16600260003373ffffffffffffffffffffffffffffffffffffffff1673ffffffffffffffffffffffffffffffffffffffff16815260200190815260200160002060009054906101000a900473ffffffffffffffffffffffffffffffffffffffff1673ffffffffffffffffffffffffffffffffffffffff16146107d4576040517f08c379a00000000000000000000000000000000000000000000000000000000081526004016107cb906126a3565b60405180910390fd5b600260003373ffffffffffffffffffffffffffffffffffffffff1673ffffffffffffffffffffffffffffffffffffffff16815260200190815260200160002060009054906101000a900473ffffffffffffffffffffffffffffffffffffffff1673ffffffffffffffffffffffffffffffffffffffff1663a0a05a4c6040518163ffffffff1660e01b8152600401602060405180830381865afa15801561087e573d6000803e3d6000fd5b505050506040513d601f19601f820116820180604052508101906108a291906124ba565b73ffffffffffffffffffffffffffffffffffffffff168573ffffffffffffffffffffffffffffffffffffffff161461090f576040517f08c379a000000000000000000000000000000000000000000000000000000000815260040161090690612559565b60405180910390fd5b5b61093e600c60000160009054906101000a900473ffffffffffffffffffffffffffffffffffffffff16611c15565b9050600073ffffffffffffffffffffffffffffffffffffffff168173ffffffffffffffffffffffffffffffffffffffff16036109af576040517f08c379a00000000000000000000000000000000000000000000000000000000081526004016109a690612735565b60405180910390fd5b6007819080600181540180825580915050600190039060005260206000200160009091909190916101000a81548173ffffffffffffffffffffffffffffffffffffffff021916908373ffffffffffffffffffffffffffffffffffffffff16021790555080600560008373ffffffffffffffffffffffffffffffffffffffff1673ffffffffffffffffffffffffffffffffffffffff16815260200190815260200160002060006101000a81548173ffffffffffffffffffffffffffffffffffffffff021916908373ffffffffffffffffffffffffffffffffffffffff16021790555084600660008373ffffffffffffffffffffffffffffffffffffffff1673ffffffffffffffffffffffffffffffffffffffff16815260200190815260200160002060006101000a81548173ffffffffffffffffffffffffffffffffffffffff021916908373ffffffffffffffffffffffffffffffffffffffff16021790555060008190508073ffffffffffffffffffffffffffffffffffffffff166397fc1a8a89898989600860009054906101000a900473ffffffffffffffffffffffffffffffffffffffff16308b6040518863ffffffff1660e01b8152600401610b7a97969594939291906127c3565b6020604051808303816000875af1158015610b99573d6000803e3d6000fd5b505050506040513d601f19601f82011682018060405250810190610bbd9190612855565b610bfc576040517f08c379a0000000000000000000000000000000000000000000000000000000008152600401610bf3906128ce565b60405180910390fd5b7fd49738fe47a44aa2d22d13ae3619a4efba4dd917732549390d6fb0a85b71fcfd82878a8a604051610c3194939291906128ee565b60405180910390a1509695505050505050565b60056020528060005260406000206000915054906101000a900473ffffffffffffffffffffffffffffffffffffffff1681565b60606004805480602002602001604051908101604052809291908181526020018280548015610cfb57602002820191906000526020600020905b8160009054906101000a900473ffffffffffffffffffffffffffffffffffffffff1673ffffffffffffffffffffffffffffffffffffffff1681526020019060010190808311610cb1575b5050505050905090565b6000600154905090565b606060005b600154811015610e8e576003600060048381548110610d3657610d35612941565b5b9060005260206000200160009054906101000a900473ffffffffffffffffffffffffffffffffffffffff1673ffffffffffffffffffffffffffffffffffffffff1673ffffffffffffffffffffffffffffffffffffffff16815260200190815260200160002060009054906101000a900473ffffffffffffffffffffffffffffffffffffffff1673ffffffffffffffffffffffffffffffffffffffff168373ffffffffffffffffffffffffffffffffffffffff1603610e7b5760048181548110610e0257610e01612941565b5b9060005260206000200160009054906101000a900473ffffffffffffffffffffffffffffffffffffffff16828281518110610e4057610e3f612941565b5b602002602001019073ffffffffffffffffffffffffffffffffffffffff16908173ffffffffffffffffffffffffffffffffffffffff16815250505b8080610e869061299f565b915050610d14565b50919050565b610e9c611cb6565b610ea66000611d34565b565b60066020528060005260406000206000915054906101000a900473ffffffffffffffffffffffffffffffffffffffff1681565b60078181548110610eeb57600080fd5b906000526020600020016000915054906101000a900473ffffffffffffffffffffffffffffffffffffffff1681565b600080600a60009054906101000a900473ffffffffffffffffffffffffffffffffffffffff1690508073ffffffffffffffffffffffffffffffffffffffff1663fd0aadae336040518263ffffffff1660e01b8152600401610f7b91906120fa565b602060405180830381865afa158015610f98573d6000803e3d6000fd5b505050506040513d601f19601f82011682018060405250810190610fbc9190612855565b610ffb576040517f08c379a0000000000000000000000000000000000000000000000000000000008152600401610ff290612a59565b60405180910390fd5b611004836115cd565b9150600082905060018173ffffffffffffffffffffffffffffffffffffffff166370a08231336040518263ffffffff1660e01b815260040161104691906120fa565b602060405180830381865afa158015611063573d6000803e3d6000fd5b505050506040513d601f19601f820116820180604052508101906110879190612a8e565b146110c7576040517f08c379a00000000000000000000000000000000000000000000000000000000081526004016110be90612b07565b60405180910390fd5b60006110e485608001518660a0015133878960c001516001610484565b90508173ffffffffffffffffffffffffffffffffffffffff16637340404d826040518263ffffffff1660e01b815260040161111f91906120fa565b600060405180830381600087803b15801561113957600080fd5b505af115801561114d573d6000803e3d6000fd5b505050506000819050678ac7230489e800008173ffffffffffffffffffffffffffffffffffffffff166370a08231336040518263ffffffff1660e01b815260040161119891906120fa565b602060405180830381865afa1580156111b5573d6000803e3d6000fd5b505050506040513d601f19601f820116820180604052508101906111d99190612a8e565b14611219576040517f08c379a000000000000000000000000000000000000000000000000000000000815260040161121090612b73565b60405180910390fd5b60008173ffffffffffffffffffffffffffffffffffffffff1663276afcae600960009054906101000a900473ffffffffffffffffffffffffffffffffffffffff16662386f26fc1000060006040518463ffffffff1660e01b815260040161128293929190612c13565b6020604051808303816000875af11580156112a1573d6000803e3d6000fd5b505050506040513d601f19601f820116820180604052508101906112c59190612c80565b90506000600960009054906101000a900473ffffffffffffffffffffffffffffffffffffffff1690508073ffffffffffffffffffffffffffffffffffffffff16636b027bfa836040518263ffffffff1660e01b81526004016113279190612cbc565b602060405180830381865afa158015611344573d6000803e3d6000fd5b505050506040513d601f19601f820116820180604052508101906113689190612855565b6113a7576040517f08c379a000000000000000000000000000000000000000000000000000000000815260040161139e90612d23565b60405180910390fd5b8273ffffffffffffffffffffffffffffffffffffffff16637d6c32c133600960009054906101000a900473ffffffffffffffffffffffffffffffffffffffff16670de0b6b3a76400006040518463ffffffff1660e01b815260040161140e93929190612d7e565b600060405180830381600087803b15801561142857600080fd5b505af115801561143c573d6000803e3d6000fd5b50505050670de0b6b3a76400008373ffffffffffffffffffffffffffffffffffffffff1663dd62ed3e33600960009054906101000a900473ffffffffffffffffffffffffffffffffffffffff166040518363ffffffff1660e01b81526004016114a6929190612db5565b602060405180830381865afa1580156114c3573d6000803e3d6000fd5b505050506040513d601f19601f820116820180604052508101906114e79190612a8e565b14611527576040517f08c379a000000000000000000000000000000000000000000000000000000000815260040161151e90612e50565b60405180910390fd5b7f46f5e3cee761854fc3892024ae7aa2c832007dff583603ce093f177ebd9c4c9687600b60000160009054906101000a900473ffffffffffffffffffffffffffffffffffffffff168a60000151338c602001518d6040015160405161159196959493929190612e70565b60405180910390a1505050505050919050565b60008060009054906101000a900473ffffffffffffffffffffffffffffffffffffffff16905090565b60008073ffffffffffffffffffffffffffffffffffffffff163373ffffffffffffffffffffffffffffffffffffffff160361163d576040517f08c379a000000000000000000000000000000000000000000000000000000000815260040161163490612485565b60405180910390fd5b600073ffffffffffffffffffffffffffffffffffffffff16600b60000160009054906101000a900473ffffffffffffffffffffffffffffffffffffffff1673ffffffffffffffffffffffffffffffffffffffff16036116d1576040517f08c379a00000000000000000000000000000000000000000000000000000000081526004016116c890612f58565b60405180910390fd5b600b60000160149054906101000a900460ff16611723576040517f08c379a000000000000000000000000000000000000000000000000000000000815260040161171a90612fea565b60405180910390fd5b611751600b60000160009054906101000a900473ffffffffffffffffffffffffffffffffffffffff16611c15565b9050600073ffffffffffffffffffffffffffffffffffffffff168173ffffffffffffffffffffffffffffffffffffffff16036117c2576040517f08c379a00000000000000000000000000000000000000000000000000000000081526004016117b99061307c565b60405180910390fd5b6004819080600181540180825580915050600190039060005260206000200160009091909190916101000a81548173ffffffffffffffffffffffffffffffffffffffff021916908373ffffffffffffffffffffffffffffffffffffffff16021790555080600260008373ffffffffffffffffffffffffffffffffffffffff1673ffffffffffffffffffffffffffffffffffffffff16815260200190815260200160002060006101000a81548173ffffffffffffffffffffffffffffffffffffffff021916908373ffffffffffffffffffffffffffffffffffffffff16021790555033600360008373ffffffffffffffffffffffffffffffffffffffff1673ffffffffffffffffffffffffffffffffffffffff16815260200190815260200160002060006101000a81548173ffffffffffffffffffffffffffffffffffffffff021916908373ffffffffffffffffffffffffffffffffffffffff1602179055506001806000828254611933919061309c565b925050819055506000819050600115158173ffffffffffffffffffffffffffffffffffffffff1663d26c93e733308760000151886020015189604001518a606001516040518763ffffffff1660e01b8152600401611996969594939291906130d0565b6020604051808303816000875af11580156119b5573d6000803e3d6000fd5b505050506040513d601f19601f820116820180604052508101906119d99190612855565b151514611a1b576040517f08c379a0000000000000000000000000000000000000000000000000000000008152600401611a12906131bf565b60405180910390fd5b7f46f5e3cee761854fc3892024ae7aa2c832007dff583603ce093f177ebd9c4c9682600b60000160009054906101000a900473ffffffffffffffffffffffffffffffffffffffff1685600001513387602001518860400151604051611a8596959493929190612e70565b60405180910390a150919050565b6000600c60000160009054906101000a900473ffffffffffffffffffffffffffffffffffffffff16905090565b60036020528060005260406000206000915054906101000a900473ffffffffffffffffffffffffffffffffffffffff1681565b6000600b60000160009054906101000a900473ffffffffffffffffffffffffffffffffffffffff16905090565b60026020528060005260406000206000915054906101000a900473ffffffffffffffffffffffffffffffffffffffff1681565b60048181548110611b6357600080fd5b906000526020600020016000915054906101000a900473ffffffffffffffffffffffffffffffffffffffff1681565b611b9a611cb6565b600073ffffffffffffffffffffffffffffffffffffffff168173ffffffffffffffffffffffffffffffffffffffff1603611c09576040517f08c379a0000000000000000000000000000000000000000000000000000000008152600401611c0090613251565b60405180910390fd5b611c1281611d34565b50565b6000808260601b90506040517f3d602d80600a3d3981f3363d3d373d3d3d363d7300000000000000000000000081528160148201527f5af43d82803e903d91602b57fd5bf3000000000000000000000000000000000060288201526037816000f09250507f117c72e6c25f0a072e36e148df71468ce2f3dbe7defec5b2c257a6e3eb65278c82604051611ca891906120fa565b60405180910390a150919050565b611cbe611df8565b73ffffffffffffffffffffffffffffffffffffffff16611cdc6115a4565b73ffffffffffffffffffffffffffffffffffffffff1614611d32576040517f08c379a0000000000000000000000000000000000000000000000000000000008152600401611d29906132bd565b60405180910390fd5b565b60008060009054906101000a900473ffffffffffffffffffffffffffffffffffffffff169050816000806101000a81548173ffffffffffffffffffffffffffffffffffffffff021916908373ffffffffffffffffffffffffffffffffffffffff1602179055508173ffffffffffffffffffffffffffffffffffffffff168173ffffffffffffffffffffffffffffffffffffffff167f8be0079c531659141344cd1fd0a4f28419497f9722a3daafe3b4186f6b6457e060405160405180910390a35050565b600033905090565b6000604051905090565b600080fd5b600080fd5b600080fd5b600080fd5b6000601f19601f8301169050919050565b7f4e487b7100000000000000000000000000000000000000000000000000000000600052604160045260246000fd5b611e6782611e1e565b810181811067ffffffffffffffff82111715611e8657611e85611e2f565b5b80604052505050565b6000611e99611e00565b9050611ea58282611e5e565b919050565b600067ffffffffffffffff821115611ec557611ec4611e2f565b5b611ece82611e1e565b9050602081019050919050565b82818337600083830152505050565b6000611efd611ef884611eaa565b611e8f565b905082815260208101848484011115611f1957611f18611e19565b5b611f24848285611edb565b509392505050565b600082601f830112611f4157611f40611e14565b5b8135611f51848260208601611eea565b91505092915050565b600073ffffffffffffffffffffffffffffffffffffffff82169050919050565b6000611f8582611f5a565b9050919050565b611f9581611f7a565b8114611fa057600080fd5b50565b600081359050611fb281611f8c565b92915050565b6000819050919050565b611fcb81611fb8565b8114611fd657600080fd5b50565b600081359050611fe881611fc2565b92915050565b60008115159050919050565b61200381611fee565b811461200e57600080fd5b50565b60008135905061202081611ffa565b92915050565b60008060008060008060c0878903121561204357612042611e0a565b5b600087013567ffffffffffffffff81111561206157612060611e0f565b5b61206d89828a01611f2c565b965050602087013567ffffffffffffffff81111561208e5761208d611e0f565b5b61209a89828a01611f2c565b95505060406120ab89828a01611fa3565b94505060606120bc89828a01611fa3565b93505060806120cd89828a01611fd9565b92505060a06120de89828a01612011565b9150509295509295509295565b6120f481611f7a565b82525050565b600060208201905061210f60008301846120eb565b92915050565b60006020828403121561212b5761212a611e0a565b5b600061213984828501611fa3565b91505092915050565b600081519050919050565b600082825260208201905092915050565b6000819050602082019050919050565b61217781611f7a565b82525050565b6000612189838361216e565b60208301905092915050565b6000602082019050919050565b60006121ad82612142565b6121b7818561214d565b93506121c28361215e565b8060005b838110156121f35781516121da888261217d565b97506121e583612195565b9250506001810190506121c6565b5085935050505092915050565b6000602082019050818103600083015261221a81846121a2565b905092915050565b61222b81611fb8565b82525050565b60006020820190506122466000830184612222565b92915050565b60006020828403121561226257612261611e0a565b5b600061227084828501611fd9565b91505092915050565b600080fd5b600080fd5b600060e0828403121561229957612298612279565b5b6122a360e0611e8f565b9050600082013567ffffffffffffffff8111156122c3576122c261227e565b5b6122cf84828501611f2c565b600083015250602082013567ffffffffffffffff8111156122f3576122f261227e565b5b6122ff84828501611f2c565b602083015250604082013567ffffffffffffffff8111156123235761232261227e565b5b61232f84828501611f2c565b604083015250606082013567ffffffffffffffff8111156123535761235261227e565b5b61235f84828501611f2c565b606083015250608082013567ffffffffffffffff8111156123835761238261227e565b5b61238f84828501611f2c565b60808301525060a082013567ffffffffffffffff8111156123b3576123b261227e565b5b6123bf84828501611f2c565b60a08301525060c06123d384828501611fd9565b60c08301525092915050565b6000602082840312156123f5576123f4611e0a565b5b600082013567ffffffffffffffff81111561241357612412611e0f565b5b61241f84828501612283565b91505092915050565b600082825260208201905092915050565b7f616464726573732830292063616e6e6f7420626520616e206f776e6572000000600082015250565b600061246f601d83612428565b915061247a82612439565b602082019050919050565b6000602082019050818103600083015261249e81612462565b9050919050565b6000815190506124b481611f8c565b92915050565b6000602082840312156124d0576124cf611e0a565b5b60006124de848285016124a5565b91505092915050565b7f50726f7669646564206d696e746572206973206e6f7420746865204e4654206f60008201527f776e657221000000000000000000000000000000000000000000000000000000602082015250565b6000612543602583612428565b915061254e826124e7565b604082019050919050565b6000602082019050818103600083015261257281612536565b9050919050565b7f50726f7669646564204e465420636f6e747261637420646f6573206e6f74206560008201527f7869737400000000000000000000000000000000000000000000000000000000602082015250565b60006125d5602483612428565b91506125e082612579565b604082019050919050565b60006020820190508181036000830152612604816125c8565b9050919050565b7f43616c6c20636f6d696e672066726f6d2061206e6f6e206578697374696e672060008201527f4e465420636f6e7472616374206465706c6f796564206279207468697320666160208201527f63746f7279000000000000000000000000000000000000000000000000000000604082015250565b600061268d604583612428565b91506126988261260b565b606082019050919050565b600060208201905081810360008301526126bc81612680565b9050919050565b7f6465706c6f794552433230436f6e74726163743a204661696c656420746f206460008201527f65706c6f79206e657720455243323020636f6e74726163740000000000000000602082015250565b600061271f603883612428565b915061272a826126c3565b604082019050919050565b6000602082019050818103600083015261274e81612712565b9050919050565b600081519050919050565b60005b8381101561277e578082015181840152602081019050612763565b60008484015250505050565b600061279582612755565b61279f8185612428565b93506127af818560208601612760565b6127b881611e1e565b840191505092915050565b600060e08201905081810360008301526127dd818a61278a565b905081810360208301526127f1818961278a565b905061280060408301886120eb565b61280d60608301876120eb565b61281a60808301866120eb565b61282760a08301856120eb565b61283460c0830184612222565b98975050505050505050565b60008151905061284f81611ffa565b92915050565b60006020828403121561286b5761286a611e0a565b5b600061287984828501612840565b91505092915050565b7f445420696e697469616c697a6174696f6e206661696c65642100000000000000600082015250565b60006128b8601983612428565b91506128c382612882565b602082019050919050565b600060208201905081810360008301526128e7816128ab565b9050919050565b600060808201905061290360008301876120eb565b61291060208301866120eb565b8181036040830152612922818561278a565b90508181036060830152612936818461278a565b905095945050505050565b7f4e487b7100000000000000000000000000000000000000000000000000000000600052603260045260246000fd5b7f4e487b7100000000000000000000000000000000000000000000000000000000600052601160045260246000fd5b60006129aa82611fb8565b91507fffffffffffffffffffffffffffffffffffffffffffffffffffffffffffffffff82036129dc576129db612970565b5b600182019050919050565b7f546865207573657220646f6573206e6f74206861766520612076616c6964205660008201527f4321000000000000000000000000000000000000000000000000000000000000602082015250565b6000612a43602283612428565b9150612a4e826129e7565b604082019050919050565b60006020820190508181036000830152612a7281612a36565b9050919050565b600081519050612a8881611fc2565b92915050565b600060208284031215612aa457612aa3611e0a565b5b6000612ab284828501612a79565b91505092915050565b7f4e4654206e6f74206d696e746564000000000000000000000000000000000000600082015250565b6000612af1600e83612428565b9150612afc82612abb565b602082019050919050565b60006020820190508181036000830152612b2081612ae4565b9050919050565b7f4d696e74206f6620445473206661696c65640000000000000000000000000000600082015250565b6000612b5d601283612428565b9150612b6882612b27565b602082019050919050565b60006020820190508181036000830152612b8c81612b50565b9050919050565b6000819050919050565b6000819050919050565b6000612bc2612bbd612bb884612b93565b612b9d565b611fb8565b9050919050565b612bd281612ba7565b82525050565b6000819050919050565b6000612bfd612bf8612bf384612bd8565b612b9d565b611fb8565b9050919050565b612c0d81612be2565b82525050565b6000606082019050612c2860008301866120eb565b612c356020830185612bc9565b612c426040830184612c04565b949350505050565b6000819050919050565b612c5d81612c4a565b8114612c6857600080fd5b50565b600081519050612c7a81612c54565b92915050565b600060208284031215612c9657612c95611e0a565b5b6000612ca484828501612c6b565b91505092915050565b612cb681612c4a565b82525050565b6000602082019050612cd16000830184612cad565b92915050565b7f465245206e6f74206163746976617465642e2041626f7274696e670000000000600082015250565b6000612d0d601b83612428565b9150612d1882612cd7565b602082019050919050565b60006020820190508181036000830152612d3c81612d00565b9050919050565b6000819050919050565b6000612d68612d63612d5e84612d43565b612b9d565b611fb8565b9050919050565b612d7881612d4d565b82525050565b6000606082019050612d9360008301866120eb565b612da060208301856120eb565b612dad6040830184612d6f565b949350505050565b6000604082019050612dca60008301856120eb565b612dd760208301846120eb565b9392505050565b7f416c6c6f77616e636520646f6573206e6f74206d6174636820617070726f766560008201527f642076616c756500000000000000000000000000000000000000000000000000602082015250565b6000612e3a602783612428565b9150612e4582612dde565b604082019050919050565b60006020820190508181036000830152612e6981612e2d565b9050919050565b600060c082019050612e8560008301896120eb565b612e9260208301886120eb565b8181036040830152612ea4818761278a565b9050612eb360608301866120eb565b8181036080830152612ec5818561278a565b905081810360a0830152612ed9818461278a565b9050979650505050505050565b7f4465706c6f794552373231436f6e74726163743a20696e76616c69642062617360008201527f6520616464726573730000000000000000000000000000000000000000000000602082015250565b6000612f42602983612428565b9150612f4d82612ee6565b604082019050919050565b60006020820190508181036000830152612f7181612f35565b9050919050565b7f4465706c6f79455243373231436f6e74726163743a204261736520636f6e747260008201527f616374206e6f7420616374697665000000000000000000000000000000000000602082015250565b6000612fd4602e83612428565b9150612fdf82612f78565b604082019050919050565b6000602082019050818103600083015261300381612fc7565b9050919050565b7f6465706c6f79455243373231436f6e74726163743a204661696c656420746f2060008201527f6465706c6f79206e65772045524337323120636f6e7472616374000000000000602082015250565b6000613066603a83612428565b91506130718261300a565b604082019050919050565b6000602082019050818103600083015261309581613059565b9050919050565b60006130a782611fb8565b91506130b283611fb8565b92508282019050808211156130ca576130c9612970565b5b92915050565b600060c0820190506130e560008301896120eb565b6130f260208301886120eb565b8181036040830152613104818761278a565b90508181036060830152613118818661278a565b9050818103608083015261312c818561278a565b905081810360a0830152613140818461278a565b9050979650505050505050565b7f466163746f72793a20436f756c64206e6f7420696e697469616c697a65204e6560008201527f77204e465420636f6e7472616374000000000000000000000000000000000000602082015250565b60006131a9602e83612428565b91506131b48261314d565b604082019050919050565b600060208201905081810360008301526131d88161319c565b9050919050565b7f4f776e61626c653a206e6577206f776e657220697320746865207a65726f206160008201527f6464726573730000000000000000000000000000000000000000000000000000602082015250565b600061323b602683612428565b9150613246826131df565b604082019050919050565b6000602082019050818103600083015261326a8161322e565b9050919050565b7f4f776e61626c653a2063616c6c6572206973206e6f7420746865206f776e6572600082015250565b60006132a7602083612428565b91506132b282613271565b602082019050919050565b600060208201905081810360008301526132d68161329a565b905091905056fea2646970667358221220db5cc4a48c810944bcffc0010a43c15759c66c0704d5160d51598a5fc1c8b5dc64736f6c63430008120033",
  "linkReferences": {},
  "deployedLinkReferences": {}
}