{
  "_format": "hh-sol-artifact-1",
  "contractName": "ServiceBase",
  "sourceName": "contracts/ServiceBase.sol",
  "abi": [
    {
      "anonymous": false,
      "inputs": [
        {
          "indexed": true,
          "internalType": "address",
          "name": "owner",
          "type": "address"
        },
        {
          "indexed": true,
          "internalType": "address",
          "name": "approved",
          "type": "address"
        },
        {
          "indexed": true,
          "internalType": "uint256",
          "name": "tokenId",
          "type": "uint256"
        }
      ],
      "name": "Approval",
      "type": "event"
    },
    {
      "anonymous": false,
      "inputs": [
        {
          "indexed": true,
          "internalType": "address",
          "name": "owner",
          "type": "address"
        },
        {
          "indexed": true,
          "internalType": "address",
          "name": "operator",
          "type": "address"
        },
        {
          "indexed": false,
          "internalType": "bool",
          "name": "approved",
          "type": "bool"
        }
      ],
      "name": "ApprovalForAll",
      "type": "event"
    },
    {
      "anonymous": false,
      "inputs": [
        {
          "indexed": false,
          "internalType": "uint256",
          "name": "_fromTokenId",
          "type": "uint256"
        },
        {
          "indexed": false,
          "internalType": "uint256",
          "name": "_toTokenId",
          "type": "uint256"
        }
      ],
      "name": "BatchMetadataUpdate",
      "type": "event"
    },
    {
      "anonymous": false,
      "inputs": [
        {
          "indexed": false,
          "internalType": "uint8",
          "name": "version",
          "type": "uint8"
        }
      ],
      "name": "Initialized",
      "type": "event"
    },
    {
      "anonymous": false,
      "inputs": [
        {
          "indexed": false,
          "internalType": "uint256",
          "name": "_tokenId",
          "type": "uint256"
        }
      ],
      "name": "MetadataUpdate",
      "type": "event"
    },
    {
      "anonymous": false,
      "inputs": [
        {
          "indexed": false,
          "internalType": "address",
          "name": "owner",
          "type": "address"
        },
        {
          "indexed": false,
          "internalType": "string",
          "name": "name",
          "type": "string"
        },
        {
          "indexed": false,
          "internalType": "string",
          "name": "symbol",
          "type": "string"
        },
        {
          "indexed": false,
          "internalType": "address",
          "name": "factory",
          "type": "address"
        }
      ],
      "name": "NFTminted",
      "type": "event"
    },
    {
      "anonymous": false,
      "inputs": [
        {
          "indexed": false,
          "internalType": "string",
          "name": "name",
          "type": "string"
        },
        {
          "indexed": false,
          "internalType": "string",
          "name": "symbol",
          "type": "string"
        },
        {
          "indexed": false,
          "internalType": "address",
          "name": "owner",
          "type": "address"
        },
        {
          "indexed": false,
          "internalType": "address",
          "name": "erc721address_",
          "type": "address"
        },
        {
          "indexed": false,
          "internalType": "address",
          "name": "newERC20Address",
          "type": "address"
        },
        {
          "indexed": false,
          "internalType": "uint256",
          "name": "maxSupply_",
          "type": "uint256"
        },
        {
          "indexed": false,
          "internalType": "uint256",
          "name": "initialSupply_",
          "type": "uint256"
        }
      ],
      "name": "TokenCreated",
      "type": "event"
    },
    {
      "anonymous": false,
      "inputs": [
        {
          "indexed": true,
          "internalType": "address",
          "name": "from",
          "type": "address"
        },
        {
          "indexed": true,
          "internalType": "address",
          "name": "to",
          "type": "address"
        },
        {
          "indexed": true,
          "internalType": "uint256",
          "name": "tokenId",
          "type": "uint256"
        }
      ],
      "name": "Transfer",
      "type": "event"
    },
    {
      "stateMutability": "payable",
      "type": "fallback"
    },
    {
      "inputs": [
        {
          "internalType": "address",
          "name": "accessToken",
          "type": "address"
        }
      ],
      "name": "addNewAccessToken",
      "outputs": [],
      "stateMutability": "nonpayable",
      "type": "function"
    },
    {
      "inputs": [
        {
          "internalType": "address",
          "name": "to",
          "type": "address"
        },
        {
          "internalType": "uint256",
          "name": "tokenId",
          "type": "uint256"
        }
      ],
      "name": "approve",
      "outputs": [],
      "stateMutability": "nonpayable",
      "type": "function"
    },
    {
      "inputs": [
        {
          "internalType": "address",
          "name": "caller",
          "type": "address"
        }
      ],
      "name": "balanceOf",
      "outputs": [
        {
          "internalType": "uint256",
          "name": "",
          "type": "uint256"
        }
      ],
      "stateMutability": "view",
      "type": "function"
    },
    {
      "inputs": [
        {
          "internalType": "uint256",
          "name": "tokenId",
          "type": "uint256"
        }
      ],
      "name": "burn",
      "outputs": [],
      "stateMutability": "nonpayable",
      "type": "function"
    },
    {
      "inputs": [
        {
          "internalType": "string",
          "name": "name",
          "type": "string"
        },
        {
          "internalType": "string",
          "name": "symbol",
          "type": "string"
        },
        {
          "internalType": "uint256",
          "name": "maxSupply_",
          "type": "uint256"
        }
      ],
      "name": "createServiceToken",
      "outputs": [
        {
          "internalType": "address",
          "name": "accessToken",
          "type": "address"
        }
      ],
      "stateMutability": "nonpayable",
      "type": "function"
    },
    {
      "inputs": [],
      "name": "getATaddresses",
      "outputs": [
        {
          "internalType": "address[]",
          "name": "",
          "type": "address[]"
        }
      ],
      "stateMutability": "view",
      "type": "function"
    },
    {
      "inputs": [
        {
          "internalType": "uint256",
          "name": "tokenId",
          "type": "uint256"
        }
      ],
      "name": "getApproved",
      "outputs": [
        {
          "internalType": "address",
          "name": "",
          "type": "address"
        }
      ],
      "stateMutability": "view",
      "type": "function"
    },
    {
      "inputs": [],
      "name": "getDescriptionHash",
      "outputs": [
        {
          "internalType": "string",
          "name": "",
          "type": "string"
        }
      ],
      "stateMutability": "view",
      "type": "function"
    },
    {
      "inputs": [],
      "name": "getServiceOwner",
      "outputs": [
        {
          "internalType": "address",
          "name": "owner",
          "type": "address"
        }
      ],
      "stateMutability": "view",
      "type": "function"
    },
    {
      "inputs": [
        {
          "internalType": "address",
          "name": "owner",
          "type": "address"
        },
        {
          "internalType": "address",
          "name": "factory",
          "type": "address"
        },
        {
          "internalType": "string",
          "name": "name_",
          "type": "string"
        },
        {
          "internalType": "string",
          "name": "symbol_",
          "type": "string"
        },
        {
          "internalType": "string",
          "name": "_tokenURI",
          "type": "string"
        },
        {
          "internalType": "string",
          "name": "descriptionHash",
          "type": "string"
        }
      ],
      "name": "initialize",
      "outputs": [
        {
          "internalType": "bool",
          "name": "",
          "type": "bool"
        }
      ],
      "stateMutability": "nonpayable",
      "type": "function"
    },
    {
      "inputs": [
        {
          "internalType": "address",
          "name": "owner",
          "type": "address"
        },
        {
          "internalType": "address",
          "name": "operator",
          "type": "address"
        }
      ],
      "name": "isApprovedForAll",
      "outputs": [
        {
          "internalType": "bool",
          "name": "",
          "type": "bool"
        }
      ],
      "stateMutability": "view",
      "type": "function"
    },
    {
      "inputs": [],
      "name": "name",
      "outputs": [
        {
          "internalType": "string",
          "name": "",
          "type": "string"
        }
      ],
      "stateMutability": "view",
      "type": "function"
    },
    {
      "inputs": [
        {
          "internalType": "uint256",
          "name": "tokenId",
          "type": "uint256"
        }
      ],
      "name": "ownerOf",
      "outputs": [
        {
          "internalType": "address",
          "name": "",
          "type": "address"
        }
      ],
      "stateMutability": "view",
      "type": "function"
    },
    {
      "inputs": [
        {
          "internalType": "address",
          "name": "from",
          "type": "address"
        },
        {
          "internalType": "address",
          "name": "to",
          "type": "address"
        },
        {
          "internalType": "uint256",
          "name": "tokenId",
          "type": "uint256"
        }
      ],
      "name": "safeTransferFrom",
      "outputs": [],
      "stateMutability": "nonpayable",
      "type": "function"
    },
    {
      "inputs": [
        {
          "internalType": "address",
          "name": "from",
          "type": "address"
        },
        {
          "internalType": "address",
          "name": "to",
          "type": "address"
        },
        {
          "internalType": "uint256",
          "name": "tokenId",
          "type": "uint256"
        },
        {
          "internalType": "bytes",
          "name": "data",
          "type": "bytes"
        }
      ],
      "name": "safeTransferFrom",
      "outputs": [],
      "stateMutability": "nonpayable",
      "type": "function"
    },
    {
      "inputs": [
        {
          "internalType": "address",
          "name": "operator",
          "type": "address"
        },
        {
          "internalType": "bool",
          "name": "approved",
          "type": "bool"
        }
      ],
      "name": "setApprovalForAll",
      "outputs": [],
      "stateMutability": "nonpayable",
      "type": "function"
    },
    {
      "inputs": [
        {
          "internalType": "bytes4",
          "name": "interfaceId",
          "type": "bytes4"
        }
      ],
      "name": "supportsInterface",
      "outputs": [
        {
          "internalType": "bool",
          "name": "",
          "type": "bool"
        }
      ],
      "stateMutability": "view",
      "type": "function"
    },
    {
      "inputs": [],
      "name": "symbol",
      "outputs": [
        {
          "internalType": "string",
          "name": "",
          "type": "string"
        }
      ],
      "stateMutability": "view",
      "type": "function"
    },
    {
      "inputs": [
        {
          "internalType": "uint256",
          "name": "tokenId",
          "type": "uint256"
        }
      ],
      "name": "tokenURI",
      "outputs": [
        {
          "internalType": "string",
          "name": "",
          "type": "string"
        }
      ],
      "stateMutability": "view",
      "type": "function"
    },
    {
      "inputs": [
        {
          "internalType": "address",
          "name": "from",
          "type": "address"
        },
        {
          "internalType": "address",
          "name": "to",
          "type": "address"
        },
        {
          "internalType": "uint256",
          "name": "tokenId",
          "type": "uint256"
        }
      ],
      "name": "transferFrom",
      "outputs": [],
      "stateMutability": "nonpayable",
      "type": "function"
    },
    {
      "inputs": [
        {
          "internalType": "bytes",
          "name": "_eth_signature",
          "type": "bytes"
        },
        {
          "internalType": "bytes",
          "name": "_challenge",
          "type": "bytes"
        }
      ],
      "name": "verifyProofOfPurchase",
      "outputs": [
        {
          "internalType": "bool",
          "name": "",
          "type": "bool"
        }
      ],
      "stateMutability": "view",
      "type": "function"
    },
    {
      "stateMutability": "payable",
      "type": "receive"
    }
  ],
  "bytecode": "0x608060405234801561001057600080fd5b506148f6806100206000396000f3fe60806040526004361061012e5760003560e01c806370a08231116100ab578063a0a05a4c1161006f578063a0a05a4c1461041e578063a22cb46514610449578063b88d4fde14610472578063c87b56dd1461049b578063d26c93e7146104d8578063e985e9c51461051557610135565b806370a08231146103135780637340404d14610350578063786e43731461037957806382573356146103b657806395d89b41146103f357610135565b8063245edf06116100f2578063245edf061461022e57806338811e261461025957806342842e0e1461028457806342966c68146102ad5780636352211e146102d657610135565b806301ffc9a71461013757806306fdde0314610174578063081812fc1461019f578063095ea7b3146101dc57806323b872dd1461020557610135565b3661013557005b005b34801561014357600080fd5b5061015e60048036038101906101599190612cc1565b610552565b60405161016b9190612d09565b60405180910390f35b34801561018057600080fd5b50610189610564565b6040516101969190612db4565b60405180910390f35b3480156101ab57600080fd5b506101c660048036038101906101c19190612e0c565b6105f6565b6040516101d39190612e7a565b60405180910390f35b3480156101e857600080fd5b5061020360048036038101906101fe9190612ec1565b61063c565b005b34801561021157600080fd5b5061022c60048036038101906102279190612f01565b610753565b005b34801561023a57600080fd5b506102436107b3565b6040516102509190612db4565b60405180910390f35b34801561026557600080fd5b5061026e610845565b60405161027b9190613012565b60405180910390f35b34801561029057600080fd5b506102ab60048036038101906102a69190612f01565b6108d3565b005b3480156102b957600080fd5b506102d460048036038101906102cf9190612e0c565b6108f3565b005b3480156102e257600080fd5b506102fd60048036038101906102f89190612e0c565b610976565b60405161030a9190612e7a565b60405180910390f35b34801561031f57600080fd5b5061033a60048036038101906103359190613034565b6109fc565b6040516103479190613070565b60405180910390f35b34801561035c57600080fd5b5061037760048036038101906103729190613034565b610a0e565b005b34801561038557600080fd5b506103a0600480360381019061039b91906130f0565b610b04565b6040516103ad9190612d09565b60405180910390f35b3480156103c257600080fd5b506103dd60048036038101906103d891906131c7565b610c59565b6040516103ea9190612e7a565b60405180910390f35b3480156103ff57600080fd5b50610408610e78565b6040516104159190612db4565b60405180910390f35b34801561042a57600080fd5b50610433610f0a565b6040516104409190612e7a565b60405180910390f35b34801561045557600080fd5b50610470600480360381019061046b9190613288565b610f1b565b005b34801561047e57600080fd5b50610499600480360381019061049491906133f8565b610f31565b005b3480156104a757600080fd5b506104c260048036038101906104bd9190612e0c565b610f93565b6040516104cf9190612db4565b60405180910390f35b3480156104e457600080fd5b506104ff60048036038101906104fa919061351c565b610fa5565b60405161050c9190612d09565b60405180910390f35b34801561052157600080fd5b5061053c60048036038101906105379190613619565b6112c0565b6040516105499190612d09565b60405180910390f35b600061055d82611354565b9050919050565b60606065805461057390613688565b80601f016020809104026020016040519081016040528092919081815260200182805461059f90613688565b80156105ec5780601f106105c1576101008083540402835291602001916105ec565b820191906000526020600020905b8154815290600101906020018083116105cf57829003601f168201915b5050505050905090565b6000610601826113b5565b6069600083815260200190815260200160002060009054906101000a900473ffffffffffffffffffffffffffffffffffffffff169050919050565b600061064782610976565b90508073ffffffffffffffffffffffffffffffffffffffff168373ffffffffffffffffffffffffffffffffffffffff16036106b7576040517f08c379a00000000000000000000000000000000000000000000000000000000081526004016106ae9061372b565b60405180910390fd5b8073ffffffffffffffffffffffffffffffffffffffff166106d6611400565b73ffffffffffffffffffffffffffffffffffffffff1614806107055750610704816106ff611400565b6112c0565b5b610744576040517f08c379a000000000000000000000000000000000000000000000000000000000815260040161073b906137bd565b60405180910390fd5b61074e8383611408565b505050565b61076461075e611400565b826114c1565b6107a3576040517f08c379a000000000000000000000000000000000000000000000000000000000815260040161079a9061384f565b60405180910390fd5b6107ae838383611556565b505050565b606060cb80546107c290613688565b80601f01602080910402602001604051908101604052809291908181526020018280546107ee90613688565b801561083b5780601f106108105761010080835404028352916020019161083b565b820191906000526020600020905b81548152906001019060200180831161081e57829003601f168201915b5050505050905090565b606060ca8054806020026020016040519081016040528092919081815260200182805480156108c957602002820191906000526020600020905b8160009054906101000a900473ffffffffffffffffffffffffffffffffffffffff1673ffffffffffffffffffffffffffffffffffffffff168152602001906001019080831161087f575b5050505050905090565b6108ee83838360405180602001604052806000815250610f31565b505050565b6108fd6001610976565b73ffffffffffffffffffffffffffffffffffffffff163373ffffffffffffffffffffffffffffffffffffffff161461096a576040517f08c379a0000000000000000000000000000000000000000000000000000000008152600401610961906138bb565b60405180910390fd5b6109738161184f565b50565b600080610982836118d2565b9050600073ffffffffffffffffffffffffffffffffffffffff168173ffffffffffffffffffffffffffffffffffffffff16036109f3576040517f08c379a00000000000000000000000000000000000000000000000000000000081526004016109ea90613927565b60405180910390fd5b80915050919050565b6000610a078261190f565b9050919050565b60c960009054906101000a900473ffffffffffffffffffffffffffffffffffffffff1673ffffffffffffffffffffffffffffffffffffffff163373ffffffffffffffffffffffffffffffffffffffff1614610a9e576040517f08c379a0000000000000000000000000000000000000000000000000000000008152600401610a9590613993565b60405180910390fd5b60ca819080600181540180825580915050600190039060005260206000200160009091909190916101000a81548173ffffffffffffffffffffffffffffffffffffffff021916908373ffffffffffffffffffffffffffffffffffffffff16021790555050565b600080610b13848488886119c6565b9050600073ffffffffffffffffffffffffffffffffffffffff168173ffffffffffffffffffffffffffffffffffffffff1603610b84576040517f08c379a0000000000000000000000000000000000000000000000000000000008152600401610b7b90613a25565b60405180910390fd5b600060ca600081548110610b9b57610b9a613a45565b5b9060005260206000200160009054906101000a900473ffffffffffffffffffffffffffffffffffffffff169050670de0b6b3a76400008173ffffffffffffffffffffffffffffffffffffffff166370a08231846040518263ffffffff1660e01b8152600401610c0a9190612e7a565b602060405180830381865afa158015610c27573d6000803e3d6000fd5b505050506040513d601f19601f82011682018060405250810190610c4b9190613a89565b101592505050949350505050565b6000610c656001610976565b73ffffffffffffffffffffffffffffffffffffffff163373ffffffffffffffffffffffffffffffffffffffff1614610cd2576040517f08c379a0000000000000000000000000000000000000000000000000000000008152600401610cc9906138bb565b60405180910390fd5b60008211610d15576040517f08c379a0000000000000000000000000000000000000000000000000000000008152600401610d0c90613b02565b60405180910390fd5b60c960009054906101000a900473ffffffffffffffffffffffffffffffffffffffff1673ffffffffffffffffffffffffffffffffffffffff1663062ac90f8787878733308960006040518963ffffffff1660e01b8152600401610d7f989796959493929190613b4f565b6020604051808303816000875af1158015610d9e573d6000803e3d6000fd5b505050506040513d601f19601f82011682018060405250810190610dc29190613bd7565b905060ca819080600181540180825580915050600190039060005260206000200160009091909190916101000a81548173ffffffffffffffffffffffffffffffffffffffff021916908373ffffffffffffffffffffffffffffffffffffffff1602179055507f7ded605ee5eb960743663ce41947ea21cc226061bd4323712c0cfd89117c5fc68686868633308760008a604051610e6799989796959493929190613c49565b60405180910390a195945050505050565b606060668054610e8790613688565b80601f0160208091040260200160405190810160405280929190818152602001828054610eb390613688565b8015610f005780601f10610ed557610100808354040283529160200191610f00565b820191906000526020600020905b815481529060010190602001808311610ee357829003601f168201915b5050505050905090565b6000610f166001610976565b905090565b610f2d610f26611400565b8383611ab6565b5050565b610f42610f3c611400565b836114c1565b610f81576040517f08c379a0000000000000000000000000000000000000000000000000000000008152600401610f789061384f565b60405180910390fd5b610f8d84848484611c22565b50505050565b6060610f9e82611c7e565b9050919050565b600080600060019054906101000a900460ff16159050808015610fd85750600160008054906101000a900460ff1660ff16105b806110055750610fe730611d90565b1580156110045750600160008054906101000a900460ff1660ff16145b5b611044576040517f08c379a000000000000000000000000000000000000000000000000000000000815260040161103b90613d3c565b60405180910390fd5b60016000806101000a81548160ff021916908360ff1602179055508015611081576001600060016101000a81548160ff0219169083151502179055505b600073ffffffffffffffffffffffffffffffffffffffff168873ffffffffffffffffffffffffffffffffffffffff16036110f0576040517f08c379a00000000000000000000000000000000000000000000000000000000081526004016110e790613dce565b60405180910390fd5b6110fa8686611db3565b611102611e10565b8660c960006101000a81548173ffffffffffffffffffffffffffffffffffffffff021916908373ffffffffffffffffffffffffffffffffffffffff16021790555060c960009054906101000a900473ffffffffffffffffffffffffffffffffffffffff1673ffffffffffffffffffffffffffffffffffffffff163373ffffffffffffffffffffffffffffffffffffffff16146111d3576040517f08c379a00000000000000000000000000000000000000000000000000000000081526004016111ca90613993565b60405180910390fd5b6111de886001611e61565b6111e9600185611e7f565b8260cb90816111f89190613f90565b507fd133d105f7b44671ec3a00c607590e7154adaafd2e0e9542b201374f2935851988878760c960009054906101000a900473ffffffffffffffffffffffffffffffffffffffff166040516112509493929190614062565b60405180910390a16001915080156112b55760008060016101000a81548160ff0219169083151502179055507f7f26b83ff96e1f2b6a682f133852f6798a09c465da95921460cefb384740249860016040516112ac91906140fd565b60405180910390a15b509695505050505050565b6000606a60008473ffffffffffffffffffffffffffffffffffffffff1673ffffffffffffffffffffffffffffffffffffffff16815260200190815260200160002060008373ffffffffffffffffffffffffffffffffffffffff1673ffffffffffffffffffffffffffffffffffffffff16815260200190815260200160002060009054906101000a900460ff16905092915050565b6000634906490660e01b7bffffffffffffffffffffffffffffffffffffffffffffffffffffffff1916827bffffffffffffffffffffffffffffffffffffffffffffffffffffffff191614806113ae57506113ad82611f23565b5b9050919050565b6113be81612005565b6113fd576040517f08c379a00000000000000000000000000000000000000000000000000000000081526004016113f490613927565b60405180910390fd5b50565b600033905090565b816069600083815260200190815260200160002060006101000a81548173ffffffffffffffffffffffffffffffffffffffff021916908373ffffffffffffffffffffffffffffffffffffffff160217905550808273ffffffffffffffffffffffffffffffffffffffff1661147b83610976565b73ffffffffffffffffffffffffffffffffffffffff167f8c5be1e5ebec7d5bd14f71427d1e84f3dd0314c0f7b2291e5b200ac8c7c3b92560405160405180910390a45050565b6000806114cd83610976565b90508073ffffffffffffffffffffffffffffffffffffffff168473ffffffffffffffffffffffffffffffffffffffff16148061150f575061150e81856112c0565b5b8061154d57508373ffffffffffffffffffffffffffffffffffffffff16611535846105f6565b73ffffffffffffffffffffffffffffffffffffffff16145b91505092915050565b8273ffffffffffffffffffffffffffffffffffffffff1661157682610976565b73ffffffffffffffffffffffffffffffffffffffff16146115cc576040517f08c379a00000000000000000000000000000000000000000000000000000000081526004016115c39061418a565b60405180910390fd5b600073ffffffffffffffffffffffffffffffffffffffff168273ffffffffffffffffffffffffffffffffffffffff160361163b576040517f08c379a00000000000000000000000000000000000000000000000000000000081526004016116329061421c565b60405180910390fd5b6116488383836001612046565b8273ffffffffffffffffffffffffffffffffffffffff1661166882610976565b73ffffffffffffffffffffffffffffffffffffffff16146116be576040517f08c379a00000000000000000000000000000000000000000000000000000000081526004016116b59061418a565b60405180910390fd5b6069600082815260200190815260200160002060006101000a81549073ffffffffffffffffffffffffffffffffffffffff02191690556001606860008573ffffffffffffffffffffffffffffffffffffffff1673ffffffffffffffffffffffffffffffffffffffff168152602001908152602001600020600082825403925050819055506001606860008473ffffffffffffffffffffffffffffffffffffffff1673ffffffffffffffffffffffffffffffffffffffff16815260200190815260200160002060008282540192505081905550816067600083815260200190815260200160002060006101000a81548173ffffffffffffffffffffffffffffffffffffffff021916908373ffffffffffffffffffffffffffffffffffffffff160217905550808273ffffffffffffffffffffffffffffffffffffffff168473ffffffffffffffffffffffffffffffffffffffff167fddf252ad1be2c89b69c2b068fc378daa952ba7f163c4a11628f55a4df523b3ef60405160405180910390a461184a838383600161204c565b505050565b6118596001610976565b73ffffffffffffffffffffffffffffffffffffffff163373ffffffffffffffffffffffffffffffffffffffff16146118c6576040517f08c379a00000000000000000000000000000000000000000000000000000000081526004016118bd906138bb565b60405180910390fd5b6118cf81612052565b50565b60006067600083815260200190815260200160002060009054906101000a900473ffffffffffffffffffffffffffffffffffffffff169050919050565b60008073ffffffffffffffffffffffffffffffffffffffff168273ffffffffffffffffffffffffffffffffffffffff160361197f576040517f08c379a0000000000000000000000000000000000000000000000000000000008152600401611976906142ae565b60405180910390fd5b606860008373ffffffffffffffffffffffffffffffffffffffff1673ffffffffffffffffffffffffffffffffffffffff168152602001908152602001600020549050919050565b6000806119d5868690506120a5565b86866040516020016119e993929190614386565b6040516020818303038152906040528051906020012090506000806000611a5387878080601f016020809104026020016040519081016040528093929190818152602001838380828437600081840152601f19601f82011690508083019250505050505050612173565b92509250925060018482858560405160008152602001604052604051611a7c94939291906143df565b6020604051602081039080840390855afa158015611a9e573d6000803e3d6000fd5b50505060206040510351945050505050949350505050565b8173ffffffffffffffffffffffffffffffffffffffff168373ffffffffffffffffffffffffffffffffffffffff1603611b24576040517f08c379a0000000000000000000000000000000000000000000000000000000008152600401611b1b90614470565b60405180910390fd5b80606a60008573ffffffffffffffffffffffffffffffffffffffff1673ffffffffffffffffffffffffffffffffffffffff16815260200190815260200160002060008473ffffffffffffffffffffffffffffffffffffffff1673ffffffffffffffffffffffffffffffffffffffff16815260200190815260200160002060006101000a81548160ff0219169083151502179055508173ffffffffffffffffffffffffffffffffffffffff168373ffffffffffffffffffffffffffffffffffffffff167f17307eab39ab6107e8899845ad3d59bd9653f200f220920489ca2b5937696c3183604051611c159190612d09565b60405180910390a3505050565b611c2d848484611556565b611c39848484846121db565b611c78576040517f08c379a0000000000000000000000000000000000000000000000000000000008152600401611c6f90614502565b60405180910390fd5b50505050565b6060611c89826113b5565b6000609760008481526020019081526020016000208054611ca990613688565b80601f0160208091040260200160405190810160405280929190818152602001828054611cd590613688565b8015611d225780601f10611cf757610100808354040283529160200191611d22565b820191906000526020600020905b815481529060010190602001808311611d0557829003601f168201915b505050505090506000611d33612362565b90506000815103611d48578192505050611d8b565b600082511115611d7d578082604051602001611d65929190614522565b60405160208183030381529060405292505050611d8b565b611d8684612379565b925050505b919050565b6000808273ffffffffffffffffffffffffffffffffffffffff163b119050919050565b600060019054906101000a900460ff16611e02576040517f08c379a0000000000000000000000000000000000000000000000000000000008152600401611df9906145b8565b60405180910390fd5b611e0c82826123e1565b5050565b600060019054906101000a900460ff16611e5f576040517f08c379a0000000000000000000000000000000000000000000000000000000008152600401611e56906145b8565b60405180910390fd5b565b611e7b828260405180602001604052806000815250612454565b5050565b611e8882612005565b611ec7576040517f08c379a0000000000000000000000000000000000000000000000000000000008152600401611ebe9061464a565b60405180910390fd5b80609760008481526020019081526020016000209081611ee79190613f90565b507ff8e1a15aba9398e019f0b49df1a4fde98ee17ae345cb5f6b5e2c27f5033e8ce782604051611f179190613070565b60405180910390a15050565b60007f80ac58cd000000000000000000000000000000000000000000000000000000007bffffffffffffffffffffffffffffffffffffffffffffffffffffffff1916827bffffffffffffffffffffffffffffffffffffffffffffffffffffffff19161480611fee57507f5b5e139f000000000000000000000000000000000000000000000000000000007bffffffffffffffffffffffffffffffffffffffffffffffffffffffff1916827bffffffffffffffffffffffffffffffffffffffffffffffffffffffff1916145b80611ffe5750611ffd826124af565b5b9050919050565b60008073ffffffffffffffffffffffffffffffffffffffff16612027836118d2565b73ffffffffffffffffffffffffffffffffffffffff1614159050919050565b50505050565b50505050565b61205b81612519565b600060976000838152602001908152602001600020805461207b90613688565b9050146120a2576097600082815260200190815260200160002060006120a19190612bf8565b5b50565b6060600060016120b484612667565b01905060008167ffffffffffffffff8111156120d3576120d26132cd565b5b6040519080825280601f01601f1916602001820160405280156121055781602001600182028036833780820191505090505b509050600082602001820190505b600115612168578080600190039150507f3031323334353637383961626364656600000000000000000000000000000000600a86061a8153600a858161215c5761215b61466a565b5b04945060008503612113575b819350505050919050565b600080600060418451146121bc576040517f08c379a00000000000000000000000000000000000000000000000000000000081526004016121b3906146e5565b60405180910390fd5b6020840151925060408401519150606084015160001a90509193909250565b60006121fc8473ffffffffffffffffffffffffffffffffffffffff16611d90565b15612355578373ffffffffffffffffffffffffffffffffffffffff1663150b7a02612225611400565b8786866040518563ffffffff1660e01b8152600401612247949392919061475a565b6020604051808303816000875af192505050801561228357506040513d601f19601f8201168201806040525081019061228091906147bb565b60015b612305573d80600081146122b3576040519150601f19603f3d011682016040523d82523d6000602084013e6122b8565b606091505b5060008151036122fd576040517f08c379a00000000000000000000000000000000000000000000000000000000081526004016122f490614502565b60405180910390fd5b805181602001fd5b63150b7a0260e01b7bffffffffffffffffffffffffffffffffffffffffffffffffffffffff1916817bffffffffffffffffffffffffffffffffffffffffffffffffffffffff19161491505061235a565b600190505b949350505050565b606060405180602001604052806000815250905090565b6060612384826113b5565b600061238e612362565b905060008151116123ae57604051806020016040528060008152506123d9565b806123b8846127ba565b6040516020016123c9929190614522565b6040516020818303038152906040525b915050919050565b600060019054906101000a900460ff16612430576040517f08c379a0000000000000000000000000000000000000000000000000000000008152600401612427906145b8565b60405180910390fd5b816065908161243f9190613f90565b50806066908161244f9190613f90565b505050565b61245e8383612888565b61246b60008484846121db565b6124aa576040517f08c379a00000000000000000000000000000000000000000000000000000000081526004016124a190614502565b60405180910390fd5b505050565b60007f01ffc9a7000000000000000000000000000000000000000000000000000000007bffffffffffffffffffffffffffffffffffffffffffffffffffffffff1916827bffffffffffffffffffffffffffffffffffffffffffffffffffffffff1916149050919050565b600061252482610976565b9050612534816000846001612046565b61253d82610976565b90506069600083815260200190815260200160002060006101000a81549073ffffffffffffffffffffffffffffffffffffffff02191690556001606860008373ffffffffffffffffffffffffffffffffffffffff1673ffffffffffffffffffffffffffffffffffffffff168152602001908152602001600020600082825403925050819055506067600083815260200190815260200160002060006101000a81549073ffffffffffffffffffffffffffffffffffffffff021916905581600073ffffffffffffffffffffffffffffffffffffffff168273ffffffffffffffffffffffffffffffffffffffff167fddf252ad1be2c89b69c2b068fc378daa952ba7f163c4a11628f55a4df523b3ef60405160405180910390a461266381600084600161204c565b5050565b600080600090507a184f03e93ff9f4daa797ed6e38ed64bf6a1f01000000000000000083106126c5577a184f03e93ff9f4daa797ed6e38ed64bf6a1f01000000000000000083816126bb576126ba61466a565b5b0492506040810190505b6d04ee2d6d415b85acef81000000008310612702576d04ee2d6d415b85acef810000000083816126f8576126f761466a565b5b0492506020810190505b662386f26fc10000831061273157662386f26fc1000083816127275761272661466a565b5b0492506010810190505b6305f5e100831061275a576305f5e10083816127505761274f61466a565b5b0492506008810190505b612710831061277f5761271083816127755761277461466a565b5b0492506004810190505b606483106127a257606483816127985761279761466a565b5b0492506002810190505b600a83106127b1576001810190505b80915050919050565b6060600060016127c984612aa5565b01905060008167ffffffffffffffff8111156127e8576127e76132cd565b5b6040519080825280601f01601f19166020018201604052801561281a5781602001600182028036833780820191505090505b509050600082602001820190505b60011561287d578080600190039150507f3031323334353637383961626364656600000000000000000000000000000000600a86061a8153600a85816128715761287061466a565b5b04945060008503612828575b819350505050919050565b600073ffffffffffffffffffffffffffffffffffffffff168273ffffffffffffffffffffffffffffffffffffffff16036128f7576040517f08c379a00000000000000000000000000000000000000000000000000000000081526004016128ee90614834565b60405180910390fd5b61290081612005565b15612940576040517f08c379a0000000000000000000000000000000000000000000000000000000008152600401612937906148a0565b60405180910390fd5b61294e600083836001612046565b61295781612005565b15612997576040517f08c379a000000000000000000000000000000000000000000000000000000000815260040161298e906148a0565b60405180910390fd5b6001606860008473ffffffffffffffffffffffffffffffffffffffff1673ffffffffffffffffffffffffffffffffffffffff16815260200190815260200160002060008282540192505081905550816067600083815260200190815260200160002060006101000a81548173ffffffffffffffffffffffffffffffffffffffff021916908373ffffffffffffffffffffffffffffffffffffffff160217905550808273ffffffffffffffffffffffffffffffffffffffff16600073ffffffffffffffffffffffffffffffffffffffff167fddf252ad1be2c89b69c2b068fc378daa952ba7f163c4a11628f55a4df523b3ef60405160405180910390a4612aa160008383600161204c565b5050565b600080600090507a184f03e93ff9f4daa797ed6e38ed64bf6a1f0100000000000000008310612b03577a184f03e93ff9f4daa797ed6e38ed64bf6a1f0100000000000000008381612af957612af861466a565b5b0492506040810190505b6d04ee2d6d415b85acef81000000008310612b40576d04ee2d6d415b85acef81000000008381612b3657612b3561466a565b5b0492506020810190505b662386f26fc100008310612b6f57662386f26fc100008381612b6557612b6461466a565b5b0492506010810190505b6305f5e1008310612b98576305f5e1008381612b8e57612b8d61466a565b5b0492506008810190505b6127108310612bbd576127108381612bb357612bb261466a565b5b0492506004810190505b60648310612be05760648381612bd657612bd561466a565b5b0492506002810190505b600a8310612bef576001810190505b80915050919050565b508054612c0490613688565b6000825580601f10612c165750612c35565b601f016020900490600052602060002090810190612c349190612c38565b5b50565b5b80821115612c51576000816000905550600101612c39565b5090565b6000604051905090565b600080fd5b600080fd5b60007fffffffff0000000000000000000000000000000000000000000000000000000082169050919050565b612c9e81612c69565b8114612ca957600080fd5b50565b600081359050612cbb81612c95565b92915050565b600060208284031215612cd757612cd6612c5f565b5b6000612ce584828501612cac565b91505092915050565b60008115159050919050565b612d0381612cee565b82525050565b6000602082019050612d1e6000830184612cfa565b92915050565b600081519050919050565b600082825260208201905092915050565b60005b83811015612d5e578082015181840152602081019050612d43565b60008484015250505050565b6000601f19601f8301169050919050565b6000612d8682612d24565b612d908185612d2f565b9350612da0818560208601612d40565b612da981612d6a565b840191505092915050565b60006020820190508181036000830152612dce8184612d7b565b905092915050565b6000819050919050565b612de981612dd6565b8114612df457600080fd5b50565b600081359050612e0681612de0565b92915050565b600060208284031215612e2257612e21612c5f565b5b6000612e3084828501612df7565b91505092915050565b600073ffffffffffffffffffffffffffffffffffffffff82169050919050565b6000612e6482612e39565b9050919050565b612e7481612e59565b82525050565b6000602082019050612e8f6000830184612e6b565b92915050565b612e9e81612e59565b8114612ea957600080fd5b50565b600081359050612ebb81612e95565b92915050565b60008060408385031215612ed857612ed7612c5f565b5b6000612ee685828601612eac565b9250506020612ef785828601612df7565b9150509250929050565b600080600060608486031215612f1a57612f19612c5f565b5b6000612f2886828701612eac565b9350506020612f3986828701612eac565b9250506040612f4a86828701612df7565b9150509250925092565b600081519050919050565b600082825260208201905092915050565b6000819050602082019050919050565b612f8981612e59565b82525050565b6000612f9b8383612f80565b60208301905092915050565b6000602082019050919050565b6000612fbf82612f54565b612fc98185612f5f565b9350612fd483612f70565b8060005b83811015613005578151612fec8882612f8f565b9750612ff783612fa7565b925050600181019050612fd8565b5085935050505092915050565b6000602082019050818103600083015261302c8184612fb4565b905092915050565b60006020828403121561304a57613049612c5f565b5b600061305884828501612eac565b91505092915050565b61306a81612dd6565b82525050565b60006020820190506130856000830184613061565b92915050565b600080fd5b600080fd5b600080fd5b60008083601f8401126130b0576130af61308b565b5b8235905067ffffffffffffffff8111156130cd576130cc613090565b5b6020830191508360018202830111156130e9576130e8613095565b5b9250929050565b6000806000806040858703121561310a57613109612c5f565b5b600085013567ffffffffffffffff81111561312857613127612c64565b5b6131348782880161309a565b9450945050602085013567ffffffffffffffff81111561315757613156612c64565b5b6131638782880161309a565b925092505092959194509250565b60008083601f8401126131875761318661308b565b5b8235905067ffffffffffffffff8111156131a4576131a3613090565b5b6020830191508360018202830111156131c0576131bf613095565b5b9250929050565b6000806000806000606086880312156131e3576131e2612c5f565b5b600086013567ffffffffffffffff81111561320157613200612c64565b5b61320d88828901613171565b9550955050602086013567ffffffffffffffff8111156132305761322f612c64565b5b61323c88828901613171565b9350935050604061324f88828901612df7565b9150509295509295909350565b61326581612cee565b811461327057600080fd5b50565b6000813590506132828161325c565b92915050565b6000806040838503121561329f5761329e612c5f565b5b60006132ad85828601612eac565b92505060206132be85828601613273565b9150509250929050565b600080fd5b7f4e487b7100000000000000000000000000000000000000000000000000000000600052604160045260246000fd5b61330582612d6a565b810181811067ffffffffffffffff82111715613324576133236132cd565b5b80604052505050565b6000613337612c55565b905061334382826132fc565b919050565b600067ffffffffffffffff821115613363576133626132cd565b5b61336c82612d6a565b9050602081019050919050565b82818337600083830152505050565b600061339b61339684613348565b61332d565b9050828152602081018484840111156133b7576133b66132c8565b5b6133c2848285613379565b509392505050565b600082601f8301126133df576133de61308b565b5b81356133ef848260208601613388565b91505092915050565b6000806000806080858703121561341257613411612c5f565b5b600061342087828801612eac565b945050602061343187828801612eac565b935050604061344287828801612df7565b925050606085013567ffffffffffffffff81111561346357613462612c64565b5b61346f878288016133ca565b91505092959194509250565b600067ffffffffffffffff821115613496576134956132cd565b5b61349f82612d6a565b9050602081019050919050565b60006134bf6134ba8461347b565b61332d565b9050828152602081018484840111156134db576134da6132c8565b5b6134e6848285613379565b509392505050565b600082601f8301126135035761350261308b565b5b81356135138482602086016134ac565b91505092915050565b60008060008060008060c0878903121561353957613538612c5f565b5b600061354789828a01612eac565b965050602061355889828a01612eac565b955050604087013567ffffffffffffffff81111561357957613578612c64565b5b61358589828a016134ee565b945050606087013567ffffffffffffffff8111156135a6576135a5612c64565b5b6135b289828a016134ee565b935050608087013567ffffffffffffffff8111156135d3576135d2612c64565b5b6135df89828a016134ee565b92505060a087013567ffffffffffffffff811115613600576135ff612c64565b5b61360c89828a016134ee565b9150509295509295509295565b600080604083850312156136305761362f612c5f565b5b600061363e85828601612eac565b925050602061364f85828601612eac565b9150509250929050565b7f4e487b7100000000000000000000000000000000000000000000000000000000600052602260045260246000fd5b600060028204905060018216806136a057607f821691505b6020821081036136b3576136b2613659565b5b50919050565b7f4552433732313a20617070726f76616c20746f2063757272656e74206f776e6560008201527f7200000000000000000000000000000000000000000000000000000000000000602082015250565b6000613715602183612d2f565b9150613720826136b9565b604082019050919050565b6000602082019050818103600083015261374481613708565b9050919050565b7f4552433732313a20617070726f76652063616c6c6572206973206e6f7420746f60008201527f6b656e206f776e6572206f7220617070726f76656420666f7220616c6c000000602082015250565b60006137a7603d83612d2f565b91506137b28261374b565b604082019050919050565b600060208201905081810360008301526137d68161379a565b9050919050565b7f4552433732313a2063616c6c6572206973206e6f7420746f6b656e206f776e6560008201527f72206f7220617070726f76656400000000000000000000000000000000000000602082015250565b6000613839602d83612d2f565b9150613844826137dd565b604082019050919050565b600060208201905081810360008301526138688161382c565b9050919050565b7f4e6f7420746865204e4654206f776e6572210000000000000000000000000000600082015250565b60006138a5601283612d2f565b91506138b08261386f565b602082019050919050565b600060208201905081810360008301526138d481613898565b9050919050565b7f4552433732313a20696e76616c696420746f6b656e2049440000000000000000600082015250565b6000613911601883612d2f565b915061391c826138db565b602082019050919050565b6000602082019050818103600083015261394081613904565b9050919050565b7f4e6f742074686520466163746f72792061646472657373210000000000000000600082015250565b600061397d601883612d2f565b915061398882613947565b602082019050919050565b600060208201905081810360008301526139ac81613970565b9050919050565b7f4552433732313a20657874726163746564207369676e6174757265206973203060008201527f7830300000000000000000000000000000000000000000000000000000000000602082015250565b6000613a0f602383612d2f565b9150613a1a826139b3565b604082019050919050565b60006020820190508181036000830152613a3e81613a02565b9050919050565b7f4e487b7100000000000000000000000000000000000000000000000000000000600052603260045260246000fd5b600081519050613a8381612de0565b92915050565b600060208284031215613a9f57613a9e612c5f565b5b6000613aad84828501613a74565b91505092915050565b7f43617020616e6420696e697469616c20737570706c79206e6f742076616c6964600082015250565b6000613aec602083612d2f565b9150613af782613ab6565b602082019050919050565b60006020820190508181036000830152613b1b81613adf565b9050919050565b6000613b2e8385612d2f565b9350613b3b838584613379565b613b4483612d6a565b840190509392505050565b600060c0820190508181036000830152613b6a818a8c613b22565b90508181036020830152613b7f81888a613b22565b9050613b8e6040830187612e6b565b613b9b6060830186612e6b565b613ba86080830185613061565b613bb560a0830184612cfa565b9998505050505050505050565b600081519050613bd181612e95565b92915050565b600060208284031215613bed57613bec612c5f565b5b6000613bfb84828501613bc2565b91505092915050565b6000819050919050565b6000819050919050565b6000613c33613c2e613c2984613c04565b613c0e565b612dd6565b9050919050565b613c4381613c18565b82525050565b600060e0820190508181036000830152613c64818b8d613b22565b90508181036020830152613c7981898b613b22565b9050613c886040830188612e6b565b613c956060830187612e6b565b613ca26080830186612e6b565b613caf60a0830185613c3a565b613cbc60c0830184613061565b9a9950505050505050505050565b7f496e697469616c697a61626c653a20636f6e747261637420697320616c72656160008201527f647920696e697469616c697a6564000000000000000000000000000000000000602082015250565b6000613d26602e83612d2f565b9150613d3182613cca565b604082019050919050565b60006020820190508181036000830152613d5581613d19565b9050919050565b7f496e76616c6964204e4654206f776e65723a207a65726f20616464726573732060008201527f6e6f742076616c69642100000000000000000000000000000000000000000000602082015250565b6000613db8602a83612d2f565b9150613dc382613d5c565b604082019050919050565b60006020820190508181036000830152613de781613dab565b9050919050565b60008190508160005260206000209050919050565b60006020601f8301049050919050565b600082821b905092915050565b600060088302613e507fffffffffffffffffffffffffffffffffffffffffffffffffffffffffffffffff82613e13565b613e5a8683613e13565b95508019841693508086168417925050509392505050565b6000613e8d613e88613e8384612dd6565b613c0e565b612dd6565b9050919050565b6000819050919050565b613ea783613e72565b613ebb613eb382613e94565b848454613e20565b825550505050565b600090565b613ed0613ec3565b613edb818484613e9e565b505050565b5b81811015613eff57613ef4600082613ec8565b600181019050613ee1565b5050565b601f821115613f4457613f1581613dee565b613f1e84613e03565b81016020851015613f2d578190505b613f41613f3985613e03565b830182613ee0565b50505b505050565b600082821c905092915050565b6000613f6760001984600802613f49565b1980831691505092915050565b6000613f808383613f56565b9150826002028217905092915050565b613f9982612d24565b67ffffffffffffffff811115613fb257613fb16132cd565b5b613fbc8254613688565b613fc7828285613f03565b600060209050601f831160018114613ffa5760008415613fe8578287015190505b613ff28582613f74565b86555061405a565b601f19841661400886613dee565b60005b828110156140305784890151825560018201915060208501945060208101905061400b565b8683101561404d5784890151614049601f891682613f56565b8355505b6001600288020188555050505b505050505050565b60006080820190506140776000830187612e6b565b81810360208301526140898186612d7b565b9050818103604083015261409d8185612d7b565b90506140ac6060830184612e6b565b95945050505050565b6000819050919050565b600060ff82169050919050565b60006140e76140e26140dd846140b5565b613c0e565b6140bf565b9050919050565b6140f7816140cc565b82525050565b600060208201905061411260008301846140ee565b92915050565b7f4552433732313a207472616e736665722066726f6d20696e636f72726563742060008201527f6f776e6572000000000000000000000000000000000000000000000000000000602082015250565b6000614174602583612d2f565b915061417f82614118565b604082019050919050565b600060208201905081810360008301526141a381614167565b9050919050565b7f4552433732313a207472616e7366657220746f20746865207a65726f2061646460008201527f7265737300000000000000000000000000000000000000000000000000000000602082015250565b6000614206602483612d2f565b9150614211826141aa565b604082019050919050565b60006020820190508181036000830152614235816141f9565b9050919050565b7f4552433732313a2061646472657373207a65726f206973206e6f74206120766160008201527f6c6964206f776e65720000000000000000000000000000000000000000000000602082015250565b6000614298602983612d2f565b91506142a38261423c565b604082019050919050565b600060208201905081810360008301526142c78161428b565b9050919050565b600081905092915050565b7f19457468657265756d205369676e6564204d6573736167653a0a000000000000600082015250565b600061430f601a836142ce565b915061431a826142d9565b601a82019050919050565b600061433082612d24565b61433a81856142ce565b935061434a818560208601612d40565b80840191505092915050565b600081905092915050565b600061436d8385614356565b935061437a838584613379565b82840190509392505050565b600061439182614302565b915061439d8286614325565b91506143aa828486614361565b9150819050949350505050565b6000819050919050565b6143ca816143b7565b82525050565b6143d9816140bf565b82525050565b60006080820190506143f460008301876143c1565b61440160208301866143d0565b61440e60408301856143c1565b61441b60608301846143c1565b95945050505050565b7f4552433732313a20617070726f766520746f2063616c6c657200000000000000600082015250565b600061445a601983612d2f565b915061446582614424565b602082019050919050565b600060208201905081810360008301526144898161444d565b9050919050565b7f4552433732313a207472616e7366657220746f206e6f6e20455243373231526560008201527f63656976657220696d706c656d656e7465720000000000000000000000000000602082015250565b60006144ec603283612d2f565b91506144f782614490565b604082019050919050565b6000602082019050818103600083015261451b816144df565b9050919050565b600061452e8285614325565b915061453a8284614325565b91508190509392505050565b7f496e697469616c697a61626c653a20636f6e7472616374206973206e6f74206960008201527f6e697469616c697a696e67000000000000000000000000000000000000000000602082015250565b60006145a2602b83612d2f565b91506145ad82614546565b604082019050919050565b600060208201905081810360008301526145d181614595565b9050919050565b7f45524337323155524953746f726167653a2055524920736574206f66206e6f6e60008201527f6578697374656e7420746f6b656e000000000000000000000000000000000000602082015250565b6000614634602e83612d2f565b915061463f826145d8565b604082019050919050565b6000602082019050818103600083015261466381614627565b9050919050565b7f4e487b7100000000000000000000000000000000000000000000000000000000600052601260045260246000fd5b7f696e76616c6964207369676e6174757265206c656e6774680000000000000000600082015250565b60006146cf601883612d2f565b91506146da82614699565b602082019050919050565b600060208201905081810360008301526146fe816146c2565b9050919050565b600081519050919050565b600082825260208201905092915050565b600061472c82614705565b6147368185614710565b9350614746818560208601612d40565b61474f81612d6a565b840191505092915050565b600060808201905061476f6000830187612e6b565b61477c6020830186612e6b565b6147896040830185613061565b818103606083015261479b8184614721565b905095945050505050565b6000815190506147b581612c95565b92915050565b6000602082840312156147d1576147d0612c5f565b5b60006147df848285016147a6565b91505092915050565b7f4552433732313a206d696e7420746f20746865207a65726f2061646472657373600082015250565b600061481e602083612d2f565b9150614829826147e8565b602082019050919050565b6000602082019050818103600083015261484d81614811565b9050919050565b7f4552433732313a20746f6b656e20616c7265616479206d696e74656400000000600082015250565b600061488a601c83612d2f565b915061489582614854565b602082019050919050565b600060208201905081810360008301526148b98161487d565b905091905056fea2646970667358221220a49c9a1969045814a1ef3e1d4eed6a50ebb4ea04573b013eb14d1a7e8bd2795164736f6c63430008120033",
  "linkReferences": {},
  "deployedLinkReferences": {}
}